{
  "contractName": "SimpleStorage",
  "abi": [
    {
      "anonymous": false,
      "inputs": [
        {
          "indexed": false,
          "internalType": "string",
          "name": "_greeter",
          "type": "string"
        }
      ],
      "name": "GreeterChanged",
      "type": "event"
    },
    {
      "anonymous": false,
      "inputs": [
        {
          "indexed": false,
          "internalType": "uint256",
          "name": "newValue",
          "type": "uint256"
        }
      ],
      "name": "ValueChanged",
      "type": "event"
    },
    {
      "inputs": [],
      "name": "read",
      "outputs": [
        {
          "internalType": "uint256",
          "name": "",
          "type": "uint256"
        }
      ],
      "stateMutability": "view",
      "type": "function",
      "constant": true
    },
    {
      "inputs": [
        {
          "internalType": "uint256",
          "name": "newValue",
          "type": "uint256"
        }
      ],
      "name": "write",
      "outputs": [],
      "stateMutability": "nonpayable",
      "type": "function"
    },
    {
      "inputs": [],
      "name": "greet",
      "outputs": [
        {
          "internalType": "string",
          "name": "",
          "type": "string"
        }
      ],
      "stateMutability": "view",
      "type": "function",
      "constant": true
    },
    {
      "inputs": [
        {
          "internalType": "string",
          "name": "_greeter",
          "type": "string"
        }
      ],
      "name": "setGreet",
      "outputs": [],
      "stateMutability": "nonpayable",
      "type": "function"
    }
  ],
  "bytecode": "0x608060405234801561001057600080fd5b506107d0806100206000396000f3fe608060405234801561001057600080fd5b506004361061004c5760003560e01c80632f048afa1461005157806357de26a41461006d5780639698086b1461008b578063cfae3217146100a7575b600080fd5b61006b60048036038101906100669190610235565b6100c5565b005b610075610106565b6040516100829190610271565b60405180910390f35b6100a560048036038101906100a091906103d2565b61010f565b005b6100af610159565b6040516100bc919061049a565b60405180910390f35b806000819055507f93fe6d397c74fdf1402a8b72e47b68512f0510d7b98a4bc4cbdf6ac7108b3c59816040516100fb9190610271565b60405180910390a150565b60008054905090565b806001908161011e91906106c8565b507fe0697c22eff3a3dea06d428bb32ccd1571b6dbf894b5d22c4cbe28d431b8e0238160405161014e919061049a565b60405180910390a150565b606060018054610168906104eb565b80601f0160208091040260200160405190810160405280929190818152602001828054610194906104eb565b80156101e15780601f106101b6576101008083540402835291602001916101e1565b820191906000526020600020905b8154815290600101906020018083116101c457829003601f168201915b5050505050905090565b6000604051905090565b600080fd5b600080fd5b6000819050919050565b610212816101ff565b811461021d57600080fd5b50565b60008135905061022f81610209565b92915050565b60006020828403121561024b5761024a6101f5565b5b600061025984828501610220565b91505092915050565b61026b816101ff565b82525050565b60006020820190506102866000830184610262565b92915050565b600080fd5b600080fd5b6000601f19601f8301169050919050565b7f4e487b7100000000000000000000000000000000000000000000000000000000600052604160045260246000fd5b6102df82610296565b810181811067ffffffffffffffff821117156102fe576102fd6102a7565b5b80604052505050565b60006103116101eb565b905061031d82826102d6565b919050565b600067ffffffffffffffff82111561033d5761033c6102a7565b5b61034682610296565b9050602081019050919050565b82818337600083830152505050565b600061037561037084610322565b610307565b90508281526020810184848401111561039157610390610291565b5b61039c848285610353565b509392505050565b600082601f8301126103b9576103b861028c565b5b81356103c9848260208601610362565b91505092915050565b6000602082840312156103e8576103e76101f5565b5b600082013567ffffffffffffffff811115610406576104056101fa565b5b610412848285016103a4565b91505092915050565b600081519050919050565b600082825260208201905092915050565b60005b8381101561045557808201518184015260208101905061043a565b60008484015250505050565b600061046c8261041b565b6104768185610426565b9350610486818560208601610437565b61048f81610296565b840191505092915050565b600060208201905081810360008301526104b48184610461565b905092915050565b7f4e487b7100000000000000000000000000000000000000000000000000000000600052602260045260246000fd5b6000600282049050600182168061050357607f821691505b602082108103610516576105156104bc565b5b50919050565b60008190508160005260206000209050919050565b60006020601f8301049050919050565b600082821b905092915050565b60006008830261057e7fffffffffffffffffffffffffffffffffffffffffffffffffffffffffffffffff82610541565b6105888683610541565b95508019841693508086168417925050509392505050565b6000819050919050565b60006105c56105c06105bb846101ff565b6105a0565b6101ff565b9050919050565b6000819050919050565b6105df836105aa565b6105f36105eb826105cc565b84845461054e565b825550505050565b600090565b6106086105fb565b6106138184846105d6565b505050565b5b818110156106375761062c600082610600565b600181019050610619565b5050565b601f82111561067c5761064d8161051c565b61065684610531565b81016020851015610665578190505b61067961067185610531565b830182610618565b50505b505050565b600082821c905092915050565b600061069f60001984600802610681565b1980831691505092915050565b60006106b8838361068e565b9150826002028217905092915050565b6106d18261041b565b67ffffffffffffffff8111156106ea576106e96102a7565b5b6106f482546104eb565b6106ff82828561063b565b600060209050601f8311600181146107325760008415610720578287015190505b61072a85826106ac565b865550610792565b601f1984166107408661051c565b60005b8281101561076857848901518255600182019150602085019450602081019050610743565b868310156107855784890151610781601f89168261068e565b8355505b6001600288020188555050505b50505050505056fea2646970667358221220e40a5a398510a1c6de95653e30fea32698b73ea5779a59c4d4850d31de063e7964736f6c63430008120033",
  "immutableReferences": {},
  "source": "// SPDX-License-Identifier: MIT\npragma solidity >=0.4.22 <0.9.0;\n\ncontract SimpleStorage {\n    uint256 value;\n    string greeter;\n\n    event ValueChanged(uint256 newValue);\n    event GreeterChanged(string _greeter);\n\n    function read() public view returns (uint256) {\n        return value;\n    }\n\n    function write(uint256 newValue) public {\n        value = newValue;\n        emit ValueChanged(newValue);\n    }\n\n    function greet() external view returns (string memory) {\n        return greeter;\n    }\n\n    function setGreet(string memory _greeter) external {\n        greeter = _greeter;\n        emit GreeterChanged(_greeter);\n    }\n}\n",
  "sourcePath": "/Users/samir/Desktop/dev/alyra-dev/web3Cours/truffle/contracts/SimpleStorage.sol",
  "compiler": {
    "name": "solc",
    "version": "0.8.18+commit.87f61d96.Emscripten.clang"
  },
  "schemaVersion": "3.4.11",
  "updatedAt": "2023-03-07T11:28:29.172Z",
  "networkType": "ethereum",
  "devdoc": {
    "kind": "dev",
    "methods": {},
    "version": 1
  },
  "userdoc": {
    "kind": "user",
    "methods": {},
    "version": 1
  }
}